{
    "contractName": "NATR",
    "abi": [
        {
            "inputs": [],
            "stateMutability": "nonpayable",
            "type": "constructor"
        },
        {
            "anonymous": false,
            "inputs": [
                {
                    "indexed": true,
                    "internalType": "address",
                    "name": "owner",
                    "type": "address"
                },
                {
                    "indexed": true,
                    "internalType": "address",
                    "name": "spender",
                    "type": "address"
                },
                {
                    "indexed": false,
                    "internalType": "uint256",
                    "name": "value",
                    "type": "uint256"
                }
            ],
            "name": "Approval",
            "type": "event"
        },
        {
            "anonymous": false,
            "inputs": [
                {
                    "indexed": true,
                    "internalType": "address",
                    "name": "from",
                    "type": "address"
                },
                {
                    "indexed": true,
                    "internalType": "address",
                    "name": "to",
                    "type": "address"
                },
                {
                    "indexed": false,
                    "internalType": "uint256",
                    "name": "value",
                    "type": "uint256"
                }
            ],
            "name": "Transfer",
            "type": "event"
        },
        {
            "inputs": [
                {
                    "internalType": "address",
                    "name": "owner",
                    "type": "address"
                },
                {
                    "internalType": "address",
                    "name": "spender",
                    "type": "address"
                }
            ],
            "name": "allowance",
            "outputs": [
                {
                    "internalType": "uint256",
                    "name": "",
                    "type": "uint256"
                }
            ],
            "stateMutability": "view",
            "type": "function"
        },
        {
            "inputs": [
                {
                    "internalType": "address",
                    "name": "spender",
                    "type": "address"
                },
                {
                    "internalType": "uint256",
                    "name": "amount",
                    "type": "uint256"
                }
            ],
            "name": "approve",
            "outputs": [
                {
                    "internalType": "bool",
                    "name": "",
                    "type": "bool"
                }
            ],
            "stateMutability": "nonpayable",
            "type": "function"
        },
        {
            "inputs": [
                {
                    "internalType": "address",
                    "name": "account",
                    "type": "address"
                }
            ],
            "name": "balanceOf",
            "outputs": [
                {
                    "internalType": "uint256",
                    "name": "",
                    "type": "uint256"
                }
            ],
            "stateMutability": "view",
            "type": "function"
        },
        {
            "inputs": [],
            "name": "decimals",
            "outputs": [
                {
                    "internalType": "uint8",
                    "name": "",
                    "type": "uint8"
                }
            ],
            "stateMutability": "view",
            "type": "function"
        },
        {
            "inputs": [
                {
                    "internalType": "address",
                    "name": "spender",
                    "type": "address"
                },
                {
                    "internalType": "uint256",
                    "name": "subtractedValue",
                    "type": "uint256"
                }
            ],
            "name": "decreaseAllowance",
            "outputs": [
                {
                    "internalType": "bool",
                    "name": "",
                    "type": "bool"
                }
            ],
            "stateMutability": "nonpayable",
            "type": "function"
        },
        {
            "inputs": [
                {
                    "internalType": "address",
                    "name": "spender",
                    "type": "address"
                },
                {
                    "internalType": "uint256",
                    "name": "addedValue",
                    "type": "uint256"
                }
            ],
            "name": "increaseAllowance",
            "outputs": [
                {
                    "internalType": "bool",
                    "name": "",
                    "type": "bool"
                }
            ],
            "stateMutability": "nonpayable",
            "type": "function"
        },
        {
            "inputs": [],
            "name": "initialize",
            "outputs": [],
            "stateMutability": "nonpayable",
            "type": "function"
        },
        {
            "inputs": [],
            "name": "name",
            "outputs": [
                {
                    "internalType": "string",
                    "name": "",
                    "type": "string"
                }
            ],
            "stateMutability": "view",
            "type": "function"
        },
        {
            "inputs": [],
            "name": "symbol",
            "outputs": [
                {
                    "internalType": "string",
                    "name": "",
                    "type": "string"
                }
            ],
            "stateMutability": "view",
            "type": "function"
        },
        {
            "inputs": [],
            "name": "totalSupply",
            "outputs": [
                {
                    "internalType": "uint256",
                    "name": "",
                    "type": "uint256"
                }
            ],
            "stateMutability": "view",
            "type": "function"
        },
        {
            "inputs": [
                {
                    "internalType": "address",
                    "name": "recipient",
                    "type": "address"
                },
                {
                    "internalType": "uint256",
                    "name": "amount",
                    "type": "uint256"
                }
            ],
            "name": "transfer",
            "outputs": [
                {
                    "internalType": "bool",
                    "name": "",
                    "type": "bool"
                }
            ],
            "stateMutability": "nonpayable",
            "type": "function"
        },
        {
            "inputs": [
                {
                    "internalType": "address",
                    "name": "sender",
                    "type": "address"
                },
                {
                    "internalType": "address",
                    "name": "recipient",
                    "type": "address"
                },
                {
                    "internalType": "uint256",
                    "name": "amount",
                    "type": "uint256"
                }
            ],
            "name": "transferFrom",
            "outputs": [
                {
                    "internalType": "bool",
                    "name": "",
                    "type": "bool"
                }
            ],
            "stateMutability": "nonpayable",
            "type": "function"
        }
    ],
    "bytecode": "608060405234801561001057600080fd5b50600054610100900460ff1661002c5760005460ff1615610034565b6100346100d5565b61009b5760405162461bcd60e51b815260206004820152602e60248201527f496e697469616c697a61626c653a20636f6e747261637420697320616c72656160448201526d191e481a5b9a5d1a585b1a5e995960921b606482015260840160405180910390fd5b600054610100900460ff161580156100bd576000805461ffff19166101011790555b80156100cf576000805461ff00191690555b506100f6565b60006100ea306100f060201b6105481760201c565b15905090565b3b151590565b610d96806101056000396000f3fe608060405234801561001057600080fd5b50600436106100b45760003560e01c806370a082311161007157806370a08231146101415780638129fc1c1461016a57806395d89b4114610174578063a457c2d71461017c578063a9059cbb1461018f578063dd62ed3e146101a257600080fd5b806306fdde03146100b9578063095ea7b3146100d757806318160ddd146100fa57806323b872dd1461010c578063313ce5671461011f578063395093511461012e575b600080fd5b6100c16101db565b6040516100ce9190610a6e565b60405180910390f35b6100ea6100e5366004610adf565b61026d565b60405190151581526020016100ce565b6035545b6040519081526020016100ce565b6100ea61011a366004610b09565b610284565b604051601281526020016100ce565b6100ea61013c366004610adf565b610333565b6100fe61014f366004610b45565b6001600160a01b031660009081526033602052604090205490565b61017261036f565b005b6100c1610493565b6100ea61018a366004610adf565b6104a2565b6100ea61019d366004610adf565b61053b565b6100fe6101b0366004610b67565b6001600160a01b03918216600090815260346020908152604080832093909416825291909152205490565b6060603680546101ea90610b9a565b80601f016020809104026020016040519081016040528092919081815260200182805461021690610b9a565b80156102635780601f1061023857610100808354040283529160200191610263565b820191906000526020600020905b81548152906001019060200180831161024657829003601f168201915b5050505050905090565b600061027a33848461054e565b5060015b92915050565b6000610291848484610672565b6001600160a01b03841660009081526034602090815260408083203384529091529020548281101561031b5760405162461bcd60e51b815260206004820152602860248201527f45524332303a207472616e7366657220616d6f756e74206578636565647320616044820152676c6c6f77616e636560c01b60648201526084015b60405180910390fd5b610328853385840361054e565b506001949350505050565b3360008181526034602090815260408083206001600160a01b0387168452909152812054909161027a91859061036a908690610beb565b61054e565b600054610100900460ff1661038a5760005460ff161561038e565b303b155b6103f15760405162461bcd60e51b815260206004820152602e60248201527f496e697469616c697a61626c653a20636f6e747261637420697320616c72656160448201526d191e481a5b9a5d1a585b1a5e995960921b6064820152608401610312565b600054610100900460ff16158015610413576000805461ffff19166101011790555b61045c6040518060400160405280600b81526020016a2730ba3ab932aa37b5b2b760a91b815250604051806040016040528060048152602001632720aa2960e11b815250610841565b61047e3361046c6012600a610ce7565b6104799062989680610cf6565b61087e565b8015610490576000805461ff00191690555b50565b6060603780546101ea90610b9a565b3360009081526034602090815260408083206001600160a01b0386168452909152812054828110156105245760405162461bcd60e51b815260206004820152602560248201527f45524332303a2064656372656173656420616c6c6f77616e63652062656c6f77604482015264207a65726f60d81b6064820152608401610312565b610531338585840361054e565b5060019392505050565b600061027a338484610672565b3b151590565b6001600160a01b0383166105b05760405162461bcd60e51b8152602060048201526024808201527f45524332303a20617070726f76652066726f6d20746865207a65726f206164646044820152637265737360e01b6064820152608401610312565b6001600160a01b0382166106115760405162461bcd60e51b815260206004820152602260248201527f45524332303a20617070726f766520746f20746865207a65726f206164647265604482015261737360f01b6064820152608401610312565b6001600160a01b0383811660008181526034602090815260408083209487168084529482529182902085905590518481527f8c5be1e5ebec7d5bd14f71427d1e84f3dd0314c0f7b2291e5b200ac8c7c3b925910160405180910390a3505050565b6001600160a01b0383166106d65760405162461bcd60e51b815260206004820152602560248201527f45524332303a207472616e736665722066726f6d20746865207a65726f206164604482015264647265737360d81b6064820152608401610312565b6001600160a01b0382166107385760405162461bcd60e51b815260206004820152602360248201527f45524332303a207472616e7366657220746f20746865207a65726f206164647260448201526265737360e81b6064820152608401610312565b6001600160a01b038316600090815260336020526040902054818110156107b05760405162461bcd60e51b815260206004820152602660248201527f45524332303a207472616e7366657220616d6f756e7420657863656564732062604482015265616c616e636560d01b6064820152608401610312565b6001600160a01b038085166000908152603360205260408082208585039055918516815290812080548492906107e7908490610beb565b92505081905550826001600160a01b0316846001600160a01b03167fddf252ad1be2c89b69c2b068fc378daa952ba7f163c4a11628f55a4df523b3ef8460405161083391815260200190565b60405180910390a350505050565b600054610100900460ff166108685760405162461bcd60e51b815260040161031290610d15565b610870610962565b61087a828261098b565b5050565b6001600160a01b0382166108d45760405162461bcd60e51b815260206004820152601f60248201527f45524332303a206d696e7420746f20746865207a65726f2061646472657373006044820152606401610312565b80603560008282546108e69190610beb565b90915550506001600160a01b03821660009081526033602052604081208054839290610913908490610beb565b90915550506040518181526001600160a01b038316906000907fddf252ad1be2c89b69c2b068fc378daa952ba7f163c4a11628f55a4df523b3ef9060200160405180910390a35050565b505050565b600054610100900460ff166109895760405162461bcd60e51b815260040161031290610d15565b565b600054610100900460ff166109b25760405162461bcd60e51b815260040161031290610d15565b81516109c59060369060208501906109d5565b50805161095d9060379060208401905b8280546109e190610b9a565b90600052602060002090601f016020900481019282610a035760008555610a49565b82601f10610a1c57805160ff1916838001178555610a49565b82800160010185558215610a49579182015b82811115610a49578251825591602001919060010190610a2e565b50610a55929150610a59565b5090565b5b80821115610a555760008155600101610a5a565b600060208083528351808285015260005b81811015610a9b57858101830151858201604001528201610a7f565b81811115610aad576000604083870101525b50601f01601f1916929092016040019392505050565b80356001600160a01b0381168114610ada57600080fd5b919050565b60008060408385031215610af257600080fd5b610afb83610ac3565b946020939093013593505050565b600080600060608486031215610b1e57600080fd5b610b2784610ac3565b9250610b3560208501610ac3565b9150604084013590509250925092565b600060208284031215610b5757600080fd5b610b6082610ac3565b9392505050565b60008060408385031215610b7a57600080fd5b610b8383610ac3565b9150610b9160208401610ac3565b90509250929050565b600181811c90821680610bae57607f821691505b60208210811415610bcf57634e487b7160e01b600052602260045260246000fd5b50919050565b634e487b7160e01b600052601160045260246000fd5b60008219821115610bfe57610bfe610bd5565b500190565b600181815b80851115610c3e578160001904821115610c2457610c24610bd5565b80851615610c3157918102915b93841c9390800290610c08565b509250929050565b600082610c555750600161027e565b81610c625750600061027e565b8160018114610c785760028114610c8257610c9e565b600191505061027e565b60ff841115610c9357610c93610bd5565b50506001821b61027e565b5060208310610133831016604e8410600b8410161715610cc1575081810a61027e565b610ccb8383610c03565b8060001904821115610cdf57610cdf610bd5565b029392505050565b6000610b6060ff841683610c46565b6000816000190483118215151615610d1057610d10610bd5565b500290565b6020808252602b908201527f496e697469616c697a61626c653a20636f6e7472616374206973206e6f74206960408201526a6e697469616c697a696e6760a81b60608201526080019056fea26469706673582212200ea459d97d96202a9c862a9a5b2cbd97649ce4cd2ce1e6a50d4f68995986abdf64736f6c634300080b0033",
    "sourcePath": "/Users/ckozma/dev/NATR/contracts/NATR.sol",
    "compiler": {
        "name": "solc",
        "version": "0.8.11+commit.d7f03943"
    },
    "functionHashes": {
        "allowance(address,address)": "dd62ed3e",
        "approve(address,uint256)": "095ea7b3",
        "balanceOf(address)": "70a08231",
        "decimals()": "313ce567",
        "decreaseAllowance(address,uint256)": "a457c2d7",
        "increaseAllowance(address,uint256)": "39509351",
        "initialize()": "8129fc1c",
        "name()": "06fdde03",
        "symbol()": "95d89b41",
        "totalSupply()": "18160ddd",
        "transfer(address,uint256)": "a9059cbb",
        "transferFrom(address,address,uint256)": "23b872dd"
    },
    "gasEstimates": {
        "creation": {
            "codeDepositCost": "695600",
            "executionCost": "infinite",
            "totalCost": "infinite"
        },
        "external": {
            "allowance(address,address)": "infinite",
            "approve(address,uint256)": "24620",
            "balanceOf(address)": "2537",
            "decimals()": "266",
            "decreaseAllowance(address,uint256)": "26954",
            "increaseAllowance(address,uint256)": "27046",
            "initialize()": "infinite",
            "name()": "infinite",
            "symbol()": "infinite",
            "totalSupply()": "2326",
            "transfer(address,uint256)": "51248",
            "transferFrom(address,address,uint256)": "infinite"
        }
    }
}